:020000040800F2
:10000000784A0020FD0200080503000807030008E5
:10001000090300080B0300080D030008000000009E
:100020000000000000000000000000000F030008B6
:100030001103000800000000130300081503000866
:100040002DBB00081703000817030008170300085A
:100050001703000817030008F53A00081703000803
:100060001703000817030008170300081703000808
:10007000170300081703000841150008A915000818
:1000800017030008170300081703000817030008E8
:1000900017030008170300081703000817030008D8
:1000A0001703000855AF00081703000817030008DE
:1000B00017030008170300081703000817030008B8
:1000C00017030008170300081703000817030008A8
:1000D00017030008BDB3000875B400081703000833
:1000E0001703000817030008170300081703000888
:1000F0001703000817030008170300081703000878
:100100001703000817030008170300081703000867
:100110001703000817030008170300081703000857
:100120001703000817030008170300081703000847
:1001300000F002F800F058F80AA090E8000C8244A1
:100140008344AAF10107DA4501D100F04DF8AFF27E
:10015000090EBAE80F0013F0010F18BFFB1A43F0A5
:1001600001031847F8D6000018D700000A4410F819
:10017000014B14F00F0508BF10F8015B240908BFFC
:1001800010F8014B6D1E05D010F8013B6D1E01F8F3
:10019000013BF9D1641E03D0641E01F8015BFBD161
:1001A0009142E4D37047000000230024002500267C
:1001B000103A28BF78C1FBD8520728BF30C148BFCA
:1001C0000B607047642900F09781782900F0FB816B
:1001D000632900F0A484732900F0A98400207047EB
:1001E0001FB51FBD10B510BD00F0A5FC1146FFF7EF
:1001F000F7FF0DF019F800F0C3FC03B4FFF7F2FFAE
:1002000003BC00F0CBFC00001848016841F010016D
:1002100001604FF0080100BFA1F1010100BF00BF64
:1002200000BF0029F8D11248016841F010010160B7
:1002300000BF00BF00BF00BF00BF00BF00BF00BFC6
:1002400000BF00BF0948016841F0100101604FF094
:100250000A01A1F1010100BF00BF00BF0029F8D1D0
:100260000348016841F01001016070471408014023
:10027000100801404FF00602A2F101021D4801687A
:1002800041F0100101604FF0050100BFA1F1010133
:1002900000BF00BF00BF0029F8D11748016841F036
:1002A0001001016000BF00BF00BF00BF00BF00BF62
:1002B00000BF1048016841F0100101604FF00701D4
:1002C000A1F1010100BF00BF00BF0029F8D10A4819
:1002D000016841F01001016000BF4FF07801A1F109
:1002E000010100BF00BF00BF0029F8D1002AC3D11F
:1002F00000BF7047140801401008014009488047BA
:1003000009480047FEE7FEE7FEE7FEE7FEE7FEE7F7
:10031000FEE7FEE7FEE7FEE704480549054A064B0F
:1003200070470000BDAD000831010008784400208E
:10033000784A0020784600207846002053EA020CD4
:1003400000F069802DE9F04B4FF00006002B1FBF35
:10035000B3FA83F503FA05F424FA05F65E4012BFFA
:100360001643B2FA82F502FA05F4C5F120051EBF64
:1003700022FA05FC44EA0C04203556EA044C4FEA04
:10038000144418BF641C4FF000084FF0000990425D
:1003900071EB030C39D3002919BFB1FA81F701FAC7
:1003A00007F6B0FA80F700FA07F6C7F120071EBF7C
:1003B00020FA07FC46EA0C062037B6FBF4FCA7EB54
:1003C0000507103F07F01F0BCBF120060CFA0BFBC3
:1003D0002CFA06F644BFB3460026202FA4BF5E4683
:1003E0004FF0000B5BEA060C08BF4FF0010B19EB56
:1003F0000B09ABFB027C48EB0608C01B06FB02CCDA
:100400000BFB03CC71EB0C01C1E70B4602464146E6
:100410004846BDE8F08B13B54FF000004FF00001E7
:10042000AFF30080BDE81C40704700000FB41CB55E
:10043000084B06AA7B4469460090059800F04DFBE6
:1004400004460020694600F05BFB20461CBC5DF8BA
:1004500014FB0000C906000070B5044685690068F9
:10046000C10601D5302600E02026C00707D070BDA8
:10047000D4E9012130469047206A401C20626D1E5D
:10048000F6D570BD70B5044685690078C00707D100
:1004900070BDD4E9012120209047206A401C2062D1
:1004A0006D1EF6D570BD70B50C460546012A05D007
:1004B0002878800600D5EA69002302E0012305E0E0
:1004C0005B1C934202D2E05C0028F9D1A869E618CF
:1004D000C01AA861286A184428622846FFF7BCFFA2
:1004E00004E0D5E9012114F8010B9047B442F8D398
:1004F0002846FFF7C7FF70BD2DE9F04106460024EE
:1005000010687529314616A510D0AFF30080002879
:1005100002DA404213A507E031688A0701D512A527
:1005200002E0490704D511A5012401E0AFF30080E2
:1005300000210A2206F1240709E0B0FBF2FCB0FB1F
:10054000F2F302FB1C00303078541846491C002896
:10055000F3D123462A463046BDE8F04100F05EBAAA
:10056000000000002D0000002B0000002000000013
:10057000F0B40D460188090502D5214C7C4402E007
:100580001F4C7C440E34002100F1240608E002F0E8
:100590000F071209E75D42EA03721B097754491CF1
:1005A00052EA0307F3D102780023120704D5702D15
:1005B00006D009B1022311342246F0BC00F02EBA55
:1005C00001231034F8E770B504460D462146106843
:1005D000AFF30080024629462046BDE87040002364
:1005E000C6E7D21D22F00703D3E90023C0E7036862
:1005F000126843F0200303600823C3610023B7E7B8
:100600005ED200002DE9F05F894604464FF0000AF3
:10061000DFF874B1FB44C0F820A02046E1688847A9
:10062000002874D0252806D0D4E901219047206AFB
:10063000401C2062F1E700265F462046E1688847BB
:100640002028054607DB312D05D2781910F8200C3B
:1006500008B10643F1E7B00701D526F00406C4F857
:100660001CA00027C4F818A02A2D09D028460CF099
:10067000E5F938B304EB8708303DC8F8185019E0A5
:1006800059F8041B204604EB87029161E168884712
:10069000012F054618D1E069002820DA26F020064F
:1006A0001DE0D8F8180000EB800005EB4000303862
:1006B000C8F818002046E168884705460CF0BEF9E6
:1006C0000028EED1012F0AD02E2D08D12046E16856
:1006D00088477F1C0546022F46F02006C4DBA06930
:1006E000002803DA404246F00106A061F00701D07D
:1006F00026F010066C2D0BD0682D09D04C2D39D06A
:100700006A2D35D0742D35D07A2D33D016E038E0EF
:10071000E1682F4620468847B842054609D16C2F2C
:1007200026D04FF48060E16806432046884705469E
:1007300004E06C2F1AD04FF4807006430DB3A5F17E
:100740004100192802D8203546F400664A46294659
:10075000204626604E46FFF735FD80B101280BD0BC
:10076000F61D26F0070000F1080956E74020E4E7EF
:100770008020D8E70020D6E706F104094DE7284697
:1007800052E7206ABDE8F09FEED10000002800DAB1
:100790004042704730B505460B462A4613F8014BD8
:1007A00012F8010B08B1A042F8D01CB1002802D009
:1007B0006D1CF1E7284630BD40EA010310B59B07E8
:1007C0000FD1042A0DD310C808C9121F9C42F8D0BB
:1007D00020BA19BA884201D9012010BD4FF0FF306C
:1007E00010BD1AB1D30703D0521C07E0002010BD82
:1007F00010F8013B11F8014B1B1B07D110F8013B0E
:1008000011F8014B1B1B01D1921EF1D1184610BDEE
:1008100040EA0103024630B59B0710D14FF0013486
:1008200000E008C208C91D1B9D4315EAC41FF8D08B
:1008300013F0FF0102F8011B0DD01B0AF8E711F8B5
:10084000013B002B02F8013B05D011F8013B002BC6
:1008500002F8013BF3D130BD10B5431C02E010F8A3
:10086000011B71B18107FAD14FF0013202C88C1A15
:100870008C4314EAC211F9D0C01A0A0603D0C01E74
:1008800010BDC01A10BD0A0401D0801E10BD09029F
:10089000FCD0401E10BD032A40F2308010F0030C43
:1008A00000F0158011F8013BBCF1020F624498BFC3
:1008B00011F801CB00F8013B38BF11F8013BA2F160
:1008C000040298BF00F801CB38BF00F8013B11F0DB
:1008D000030300F02580083AC0F0088051F8043B7B
:1008E000083A51F804CBA0E80810F5E7121D5CBFE8
:1008F00051F8043B40F8043BAFF30080D20724BF1B
:1009000011F8013B11F801CB48BF11F8012B24BFAE
:1009100000F8013B00F801CB48BF00F8012B7047FD
:1009200010B5203AC0F00B80B1E81850203AA0E88A
:100930001850B1E81850A0E81850BFF4F5AF5FEABE
:10094000027C24BFB1E81850A0E8185044BF18C971
:1009500018C0BDE810405FEA827C24BF51F8043B18
:1009600040F8043B08BF7047D20728BF31F8023B6C
:1009700048BF11F8012B28BF20F8023B48BF00F800
:10098000012B70474FF000020429C0F0128010F0D4
:10099000030C00F01B80CCF1040CBCF1020F18BF5B
:1009A00000F8012BA8BF20F8022BA1EB0C0100F0EE
:1009B0000DB85FEAC17C24BF00F8012B00F8012BC1
:1009C00048BF00F8012B70474FF0000200B51346F6
:1009D00094469646203922BFA0E80C50A0E80C505F
:1009E000B1F12001BFF4F7AF090728BFA0E80C5010
:1009F00048BF0CC05DF804EB890028BF40F8042B09
:100A000008BF704748BF20F8022B11F0804F18BF75
:100A100000F8012B70477047704770472DE9F04789
:100A20000D4699469246044600F12408016888065E
:100A300004D5E06921F01001216000E00120A84206
:100A400001DD471B00E00027A1697A1902EB0900CC
:100A5000081AA0612078C00602D42046FFF7FCFCEB
:100A6000002608E0D4E901211AF806009047206A20
:100A7000401C761C20624E45F4DB2078C0060AD567
:100A80002046FFF7E9FC06E0D4E901213020904739
:100A9000206A401C2062381EA7F10107F4DC07E041
:100AA000D4E9012118F805009047206A401C206213
:100AB000281EA5F10105F3DC2046FFF7E3FC2078B2
:100AC000000602D50220BDE8F0870120FBE7000008
:100AD00001694A1C02610878704700B58FB0CDE902
:100AE00001310021059105497944CDE903101146F2
:100AF0006846FFF787FD0FB000BD0000E5FFFFFF70
:100B00000A6802F8010B0A60704710B5436913B117
:100B1000AFF3008001E0FFF7C6FC012010BD1278A2
:100B200000F124010A7000224A700122EDE71168E9
:100B30004FF0FF32E9E7754600F02CF8AE460500AD
:100B40006946534620F00700854618B020B5FFF7E8
:100B5000E3FBBDE820404FF000064FF000074FF0E8
:100B600000084FF0000B21F00701AC46ACE8C009CB
:100B7000ACE8C009ACE8C009ACE8C0098D467047D4
:100B800010B50446AFF300802046BDE81040FFF7E3
:100B900034BB00000048704714440020014918206D
:100BA000ABBEFEE726000200704721B1826842F02A
:100BB0000102826003E0826822F0010282607047D5
:100BC00021B1826842F48072826003E0826822F47C
:100BD000807282607047014600208A6802F0040239
:100BE0000AB1012000E0002070470146C86C80B2C5
:100BF0007047014600208A6802F008020AB101200D
:100C000000E000207047000030B5024600200023BD
:100C100050680F4C20400D790C6844EA05242043AD
:100C2000506090680B4C2040D1E902542C434D7920
:100C300044EA450420439060D06A20F470000C7CA4
:100C4000641EE4B2234340EA0350D06230BD00008A
:100C5000FFFEF0FFFDF7F1FFF0B504460D46002062
:100C60000021092D11DDE068A5F10A0606EB460713
:100C7000072606FA07F18843A5F10A0606EB4606A1
:100C800003FA06F10843E0600CE0206905EB450734
:100C9000072606FA07F1884305EB450603FA06F135
:100CA00008432061072A0FDA606B561E06EB8607A1
:100CB0001F2606FA07F18843561E06EB860605FA3C
:100CC00006F10843606322E00D2A0FDA206BD61F7D
:100CD00006EB86071F2606FA07F18843D61F06EBA8
:100CE000860605FA06F10843206310E0E06AA2F1E7
:100CF0000D0606EB86071F2606FA07F18843A2F1C8
:100D00000D0606EB860605FA06F10843E062F0BD23
:100D1000816841F008018160704721B1826842F426
:100D2000A002826003E0826822F4A0028260704721
:100D3000816841F004018160704700B50CF0C8F98A
:100D400008223121A62009F0D1FF08222C21A6205B
:100D500009F0CCFF08222D21A62009F0C7FF00BD15
:100D600000B591B00121084609F0E4F801214802DC
:100D700009F000F9344800F089FC34480190344807
:100D80000290002003904FF4F8600490002005903A
:100D90008020069040000790800008902020099055
:100DA00000020A9000200B9001A9274800F021FDC5
:100DB00001220221244800F013FD0121224800F005
:100DC00059FC00200C908DF8340001208DF835007E
:100DD0004FF460200E9000200F9001208DF840000D
:100DE0000CA91A484C38FFF70FFF002301221146C7
:100DF00016484C38FFF730FF012114484C38FFF7F4
:100E0000DFFE012111484C38FFF7CFFE0F484C3868
:100E1000FFF77EFF00BF0D484C38FFF7EAFE0028C1
:100E2000F9D10A484C38FFF783FF00BF07484C3818
:100E3000FFF7D1FE0028F9D1012104484C38FFF713
:100E40006CFF11B000BD0000080002404C240140BE
:100E50001C2F002000B585B00121880209F08AF816
:100E6000002000908DF804008DF805004FF46020FC
:100E700002900020039001208DF81000694612486E
:100E8000FFF7C2FE0323012206210F48FFF7E4FE0D
:100E900001210D48FFF789FE0B48FFF739FF00BF1E
:100EA0000948FFF7A6FE0028FAD10748FFF740FFE0
:100EB00000BF0548FFF78FFE0028FAD10121024844
:100EC000FFF72BFF05B000BD0028014000B591B031
:100ED0000121022009F02EF80121C80309F04AF887
:100EE000314800F0D3FB3148019031480290002096
:100EF0000390012004900020059006904FF480702C
:100F00000790800008902020099000020A9000209D
:100F10000B9001A9244800F06CFC0121224800F04C
:100F2000A9FB00200C9001208DF834008DF83500CD
:100F30004FF460200E9000200F9001208DF84000AB
:100F40000CA91A484C38FFF75FFE032301220B213E
:100F500016484C38FFF780FE012114484C38FFF743
:100F60002FFE012111484C38FFF71FFE0F484C3867
:100F7000FFF7CEFE00BF0D484C38FFF73AFE0028C1
:100F8000F9D10A484C38FFF7D3FE00BF07484C3868
:100F9000FFF721FE0028F9D1012104484C38FFF762
:100FA000BCFE11B000BD0000580402404C3C0140A2
:100FB000E40300202DE9FE4F05468A464FF0000B62
:100FC000D84600260020029000270190009081461C
:100FD00065215D48FFF7D6FC00241FE0285710F17B
:100FE000640F02DA9C20285504E02857642801DDAC
:100FF00064202855295701F1640000EBD071491095
:10100000514A515C491CCAB2295701F1640000EBF6
:10101000D07149104C4B5A54601C84B23C2CDDDB1F
:10102000494890F80080012409E04748005D4045A8
:1010300003DD454810F804800294601C84B2652CDE
:10104000F3DB029E032E05DAF01C80B20190002033
:10105000009013E0612E07DD642E05DC6420019012
:10106000F01E80B2009009E0032E07DB612E05DC44
:10107000F01C80B20190F01E80B200904FF000088A
:10108000009C06E03048005D40441FFA80F8601C78
:1010900084B201988442F5DD002417E02A5702F15A
:1010A000640101EBD1725310009A93420CDB2A5772
:1010B00002F1640000EBD0725310019A934203DCFA
:1010C00028578344781C87B2601C84B23C2CE5DB33
:1010D000BAF1010F1DD1B8F12D0F0BDB2FB19BFB26
:1010E000F7F040B2194981F880020120174981F8D0
:1010F000750226E0284603F031FE8146B9F17D0FE6
:1011000002D0124880F880920220104981F87502BE
:1011100017E0BAF1000F14D1B8F12D0F07DB87B13A
:101120009BFBF7F040B2094981F8810209E02846AB
:1011300003F014FE8146B9F17D0F02D0034880F818
:101140008192BDE8FE8F0000263F0020440C002065
:101150002DE9F04F8BB000200290BA480088142887
:101160002CDAB9480068B0F5007F14D3B64800689F
:10117000B0F5706F0FD8B4480068B449B14A12880E
:1011800041F82200AF480088401CAE49088000208A
:10119000AF4908700FE0AC480068B0F5007F0AD294
:1011A000AB480078401CAA49087008460078FF2820
:1011B00001DBC92008700BB0BDE8F08F0020A14909
:1011C0000880079000240CE0A04850F824100798ED
:1011D000814204D99D4850F824000790A146601C24
:1011E000C4B2142CF0DB0020984941F82900059086
:1011F00000240CE0954850F824100598814204D949
:10120000924850F8240005900A94601CC4B2142C33
:10121000F0DB4FF0FF318D4A0A9842F82010084663
:10122000114641F829004000069000240CE0874850
:1012300050F824100698814204D2844850F82400C3
:1012400006900994601CC4B2142CF0DB4FF0FF31FF
:101250007E4A099842F820104800049000240CE0CF
:101260007A4850F824100498814204D2774850F804
:10127000240004900894601CC4B2142CF0DB0021FC
:10128000724A089842F82010099842F820100A98EB
:1012900042F820100020114641F82900824600241F
:1012A00005E06A4850F824008244601CC4B2142C43
:1012B000F7DB4FEA1A154FF0100B002431E06348BA
:1012C00050F82400A84215D81420B5FBF0F05F496F
:1012D00051F824100844A84221D85C4850F8240052
:1012E000E8B10020594941F82400ABF101001FFA90
:1012F00080FB14E01420B5FBF0F02844534951F86A
:10130000241088420BD8514850F8240038B10020EE
:101310004E4941F82400ABF101001FFA80FB601C2C
:10132000C4B2142CCBDB4FF0000A002405E0474880
:1013300050F824008244601CC4B2142CF7DBBBF1CB
:101340000F0F02DBBAFBFBF503E000203D490880EC
:1013500031E74FF000082F463D4640F2D311781A8E
:1013600068F10001002358405940084310D040F272
:10137000D311791A68F100000A460346CDE900103E
:1013800034480021FEF7DAFF0746B8B2039003E0C5
:1013900000202C4908800EE700242BE02E4830F86E
:1013A00014100398814223DB2B49601C31F8101084
:1013B000039881421CDC264606EB86004FF6FF713F
:1013C00001EA4006244830F814100246601C32F846
:1013D0001000091A601C32F810200398801A00EBE4
:1013E0008000400090FBF1F0304486B20120029072
:1013F000601CC4B2962CD1DB029801281ED10020BB
:101400000290B6F5E17F0CDBA6F5E17086B2B6F589
:101410007A7F01DB40F2E73606F57A700F490880E3
:1014200007E0C6F5E17086B206F6B83086B20B4822
:1014300006800B480078401C0949087000BF00BFB7
:10144000B9E60000C203002040000020A0260020D2
:10145000810300200DA50100ACD600088403002004
:10146000820300202DE9F04105460E4600272C227C
:1014700029460948FFF70FFA002406E0064830F82D
:101480001400384487B2601C84B2701EA042F5DCA0
:101490003846BDE8F0810000481E002070B50546C2
:1014A0000EA11048FFF776F904460CB9002070BD74
:1014B0000C48201A8030B0F5807F01DD0020F6E76F
:1014C000032209A104F17D00FFF776F920B9054850
:1014D000201A28700120EAE70020E8E75044413A4A
:1014E00000000000C81B0020454E440010B501213B
:1014F000480708F02FFD10BD39B1084A12680123D2
:1015000083401A43054B1A6006E0044A126801231F
:1015100083409A43014B1A607047000000740040FA
:1015200008B500220092054A009200F11402009BC7
:101530001A440092009A116008BD00000074004037
:1015400010B54FF4005000F087F84FF4004000F061
:1015500083F8002202210F4800F042F900210D48D3
:1015600000F088F8002280210B4809F0ECFF0021F0
:10157000094809F0DCFF00200849A1F85400084898
:101580000078012805D10748007810B901200549E5
:10159000087010BD44000240003801404826002079
:1015A000500300205103002010B54FF4003000F02C
:1015B00053F84FF4002000F04FF80021054800F0E8
:1015C00059F8054800F034F909F0BEFE00F006F8BD
:1015D00010BD0000580002409C3E002000B58BB0BA
:1015E000194800F053F8194800901948019000205C
:1015F0000290184800780390002004908020059005
:1016000000200690079020200890C001099000203B
:101610000A9069460C4800F0ECF8012240210B4882
:10162000001F09F090FF0121074800F023F8012274
:101630000221054800F0D4F801220821024800F0F8
:10164000CFF80BB000BD0000580002400438014044
:101650009C3E0020E003002000F0805111B10349BE
:10166000086001E00249486070470000040402403D
:101670000000024021B1026842F00102026004E071
:1016800002684FF6FE731A400260704701684FF619
:10169000FE72114001600021016041608160C16003
:1016A0004B49884208D14A490839496841F00F013D
:1016B000474A083A51608AE045491431884208D1C6
:1016C00043490839496841F0F001414A083A5160FC
:1016D0007DE03F492831884208D13D4908394968B1
:1016E00041F470613A4A083A516070E038493C313F
:1016F000884208D136490839496841F47041344A72
:10170000083A516063E032495031884208D130498B
:101710000839496841F470212D4A083A516056E071
:101720002B496431884208D129490839496841F474
:101730007001274A083A516049E0254978318842CA
:1017400008D123490839496841F07061204A083AB4
:1017500051603CE01F49884206D1011F096841F0F1
:101760000F01021F116032E01A491431884208D17A
:101770001849091F096841F0F001164A121F11604B
:1017800025E014492831884208D11249091F096807
:1017900041F470610F4A121F116018E00D493C318D
:1017A000884208D10B49091F096841F47041094A70
:1017B000121F11600BE007495031884207D10549DB
:1017C000091F096841F47021024A121F1160704715
:1017D00008000240080402400146486880B2704791
:1017E0001AB103680B43036002E003688B43036094
:1017F000704710B50022026847F6F0739A430C6AEE
:101800008B6823430C6923434C6923438C6923432E
:10181000CC6923434C6A23438C6A23431A430260F6
:10182000CB6843600B6883604B68C36010BD0000E9
:1018300030B50246002008E0145C0B4B1B7800EB2F
:10184000C3030A4DEC54431CD8B20828F4DB064B02
:101850001B785B1C044C237023461B78062B01DB92
:101860000023237030BD000013030020CE090020A8
:101870004160704710B5484800881E2803DA474881
:101880000078062803DB01204549087002E00220A9
:1018900043490870434A1288511C01EBD172501021
:1018A00000EBD0725210A0EB420212BB3A48008803
:1018B0001E2806DB002009F0A5FC00203A4908801C
:1018C00069E03A48007860B100203949087036482C
:1018D00000880A2190FBF1F084B2204609F092FCC6
:1018E00059E00120324908702F48008809F08AFC2D
:1018F00051E000202E490870274800881E2808DB88
:10190000002009F07FFC00202A4908702349087054
:101910000AE022480078092802DD09201F490870E2
:101920001E48007809F06EFC2348407902280BD14C
:1019300022480078224908700C2022490870224968
:1019400008701E49087026E01B48407904280BD116
:101950001A4800781A4908700D201A4908701A4967
:1019600008701649087016E01348407905280BD115
:1019700012480078124908700E2012490870124966
:1019800008700E49087006E010200D4908700D49D6
:1019900008700D49087010BD460000204D0300205E
:1019A0005E030020AE030020FE030020860300201B
:1019B0004E0300204C030020EC0300200304002011
:1019C00000040020010400200204002030B5044679
:1019D000354800881E2803DA34480078062803DBDF
:1019E00001203349087002E0022031490870314A71
:1019F0001288511C01EBD172501000EBD0725210C2
:101A0000A0EB420212BB284800881E2806DB0020FB
:101A100009F0F8FB00202849088044E027480078B6
:101A200060B1002026490870234800880A2190FBF5
:101A3000F1F085B2284609F0E5FB34E001202049A9
:101A400008701D48008809F0DDFB2CE000201C49CF
:101A50000870154800881E2808DB002009F0D2FB1A
:101A60000020184908701149087006E00F480078F6
:101A7000092802DD09200D490870542C00DB54248C
:101A80000A2094FBF0F0104908700A2094FBF0F152
:101A900000FB11400D49087010200D4908700348E3
:101AA00000780C49087030BD460000204D0300202E
:101AB0005E030020AE030020FE030020860300200A
:101AC0004E0300204C0300200004002001040020ED
:101AD00002040020030400200C21054A11700A2191
:101AE000044A1170044A10700C21044A11707047A6
:101AF0000004002001040020020400200304002050
:101B000010B50446012C0CD1002009490870094980
:101B100008700120084908700849087008490870D1
:101B200005E0204609F06EFB00200549087010BD55
:101B3000000400200104002002040020030400200F
:101B40004E0300201021064A1170064A1170064A01
:101B50001070064A11700021054A1170704700008C
:101B600000040020010400200204002003040020DF
:101B70004E0300201121114A11704FF47A7190FB2D
:101B8000F1F201FB1201642291FBF2F10C4A117097
:101B9000642190FBF1F201FB12010A2291FBF2F1A8
:101BA000084A11700A2190FBF1F201FB1201064A6A
:101BB00011700021054A11707047000000040020D8
:101BC0000104002002040020030400204E03002032
:101BD00070B504460D46754A1288511C01EBD1724E
:101BE000501000EBD0725210A0EB4202002A49D1F3
:101BF00001206F490870002C10DB04F132000A212B
:101C000090FBF1F06B49087004F132000A2190FB5F
:101C1000F1F201FB1200684908700FE004F1320094
:101C20000A2190FBF1F06349087004F132000A21A7
:101C300090FBF1F201FB12005F490870002D10DBF0
:101C400005F132000A2190FBF1F05C49087005F1C2
:101C500032000A2190FBF1F201FB12005849087092
:101C6000A3E005F132000A2190FBF1F0534908701E
:101C700005F132000A2190FBF1F201FB12005049FC
:101C8000087092E000204A4908704E4890F90C0014
:101C900000281EDB4B4890F90C00312812DC494823
:101CA00090F90C000A2190FBF1F042490870454878
:101CB00090F90C000A2190FBF1F201FB12003E4961
:101CC00008702AE00E203B49087011203A4908703C
:101CD00023E03C4991F90C00FEF758FD312816DC51
:101CE000384991F90C00FEF751FD0A2190FBF1F003
:101CF00030490870334991F90C00FEF747FD0A217D
:101D000090FBF1F201FB12002B49087005E00E2058
:101D1000284908701120284908702A4890F90D00B8
:101D200000281EDB274890F90D00312812DC2548D9
:101D300090F90D000A2190FBF1F02049087021482C
:101D400090F90D000A2190FBF1F201FB12001C49F1
:101D500008702AE00E2019490870112018490870EF
:101D600023E0184991F90D00FEF710FD312816DC2B
:101D7000144991F90D00FEF709FD0A2190FBF1F0DD
:101D80000E4908700F4991F90D00FEF7FFFC0A217A
:101D900090FBF1F201FB12000949087005E00E20EA
:101DA0000649087011200649087070BDAE03002076
:101DB0004E03002000040020010400200204002043
:101DC00003040020FC4300204FF47A7190FBF1F1F2
:101DD000104A11704FF47A7190FBF1F201FB12017D
:101DE000642291FBF2F10C4A1170642190FBF1F234
:101DF00001FB12010A2291FBF2F1084A11700A213B
:101E000090FBF1F201FB1201054A11700021054A15
:101E1000117070470004002001040020020400201B
:101E2000030400204E0300204FF47A7190FBF1F17F
:101E3000104A11704FF47A7190FBF1F201FB12011C
:101E4000642291FBF2F10C4A1170642190FBF1F2D3
:101E500001FB12010A2291FBF2F1084A11700A21DA
:101E600090FBF1F201FB1201054A11700121054AB4
:101E700011707047000400200104002002040020BB
:101E8000030400204E0300200C21094A11700A218E
:101E900090FBF1F1074A11700A2190FBF1F201FB6E
:101EA0001201054A11701321044A11707047000095
:101EB000000400200104002002040020030400208C
:101EC0000A48C07930380A4908700848007A303822
:101ED000084908700548407A3038074908700348B7
:101EE000807A30380549087070470000B8D500087E
:101EF000000400200104002002040020030400204C
:101F00002DE9F041002400250026FE4800780B282A
:101F10007ED2DFE810F00B00E8004F01CD014F0248
:101F2000BB026B03C5032B0488049B04F648008E98
:101F300000F4807078B1F448006B80F48070F2494E
:101F400008630120EF490870F048408B488000206A
:101F5000ED490863C4E0EC48008E00F4005078B10D
:101F6000E948006B80F40050E74908630220E54926
:101F70000870E648408888800020E3490863AFE0A5
:101F8000E148008E00F4804078B1DF48006B80F4B7
:101F90008040DD4908630320DA490870DB48808B04
:101FA000C8800020D84908639AE0D748008E00F422
:101FB000806078B1D448006B80F48060D2490863B7
:101FC0000420D0490870D148C08808810020CE493B
:101FD000086385E0CC48008E00F48050002856D07D
:101FE000C948006B80F48050C74908630520C54983
:101FF0000870C7484079042803D0C54840790528AF
:1020000030D1C248B0F91E0000280BDABF4900E009
:10201000FDE3B1F91E00FEF7B9FB404240B2B949F9
:10202000887207E0B949B1F91E00FEF7AFFB40B274
:10203000B4498872B548B0F92000002809DAB349DC
:10204000B1F92000FEF7A2FB404240B2AD49C87290
:1020500019E0AE49B1F92000FEF798FB40B2A9495A
:10206000C87210E0AA484079012803D0A8484079F6
:10207000022808D1A648807840B2A2498872A448B4
:10208000C07840B2C87200209F49086328E09E488B
:10209000008E00F4007078B19B48006B80F40070F3
:1020A000994908630620974908709848408CC88170
:1020B00000209549086313E09348008E00F4006007
:1020C00070B19148006B80F400608F49086307206D
:1020D0008C4908708D48C08C088200208A490863AA
:1020E000FFF7C8FB81E2884890F8300000F0080054
:1020F00098B18548006B80F00800834908638148E7
:102100004088FE2803DBFE207E49488048E07D4869
:102110004088401C7B49488042E07B4890F8300072
:1021200000F00200F8B17848006B80F002007649B8
:102130000863AB20FEF72AFB72494988884205DB19
:10214000AB20FEF723FB6F49488029E0AB20FEF768
:102150001DFB6C494988884222DA6A484088401E43
:10216000684948801CE06848008E00F48070B8B16F
:102170006548006B80F48070634908630020614902
:1021800008706248408B4988884206D05D48408884
:102190005E494883084609F01DFD00205A4908633E
:1021A00058494988C1F1FF00FEF7F0FA0746FFF7EA
:1021B0000DFCA8E3544890F8300000F00200D0B1C4
:1021C0005148006B80F002004F49086300240FE083
:1021D0004C4880884F4951F82410884206D14D4917
:1021E000601C31F820004749888003E0601CC4B2BD
:1021F0000C2CEDDB52E0444890F8300000F0080071
:10220000D0B14148006B80F008003F4908630C24BE
:102210000FE03C4880883F4951F82410884206D19D
:10222000601E3C4931F820003649888003E0601E7A
:10223000C4B2002CEDDC31E03348008E00F4807035
:10224000C0B13148006B80F480702F4908630020D2
:102250002C4908702D4840888988884206D0294832
:1022600080882A494880084609F0B4FC00202649A5
:10227000086313E02448008E00F4805070B12248B7
:10228000006B80F480502049086308201D490870C5
:102290001E480089488200201B490863194880882D
:1022A0000A2190FBF1F087B23846FFF729FC2AE3B8
:1022B000154890F8300000F0020098B11248006B09
:1022C00080F00200104908630E48C088042803DB30
:1022D00004200C49C88068E00A48C088401C0949AD
:1022E000C88062E0084890F8300000F0080008B3A9
:1022F0000548006B80F00800034908630148C08866
:1023000070B909E0FC430020C84300201C1E0020D7
:10231000EC030020C4D500080020F949C88044E03F
:10232000F748C088002840DDF548C088401EF449C1
:10233000C8803AE0F348008E00F48070C0B1F148E4
:10234000006B80F48070EF4908630020EC4908704E
:10235000ED48808BC988884206D0E948C088EA49A0
:102360008883084609F036FC0020E64908631CE033
:10237000E448008E00F48050B8B1E248006B80F46D
:102380008050E04908630A20DD490870DE48008D6E
:10239000898A884206D0DA48808ADB49088508465F
:1023A00009F018FC0020D7490863D549C888FFF711
:1023B000C9FBA8E2D34890F8300000F0020098B1C1
:1023C000D048006B80F00200CE490863CC480089F9
:1023D000C82803DBC820CA49088152E0C8480089E0
:1023E000401CC74908814CE0C64890F8300000F016
:1023F0000800B8B1C348006B80F00800C149086309
:10240000BF480089142803DC1420BD49088138E046
:10241000BB480089142834DDB9480089401EB849FA
:1024200008812EE0B748008E00F48070C0B1B54836
:10243000006B80F48070B34908630020B0490870D5
:10244000B148C0880989884206D0AD480089AE49A4
:10245000C880084609F0BEFB0020AA49086310E0C6
:10246000A848008E00F4805058B1A648006B80F454
:102470008050A44908630920A14908700020A1499F
:1024800008639F490889FFF775FB3CE29D4890F877
:10249000300000F00200A8B19A48006B80F0020002
:1024A00098490863964890F90A00312803DBCF2049
:1024B0009349887292E09248807A401C40B29049D9
:1024C00088728BE08F4890F8300000F00800A8B1C7
:1024D0008C48006B80F008008A490863884890F9AE
:1024E0000B00312803DBCF208549C87276E0844891
:1024F000C07A401C40B28249C8726FE08148008EA9
:1025000000F48070F0B37F48006B80F480707D49E8
:1025100008637E484079042803D07C484079052828
:102520001FD17948B0F91E00754991F90A10884207
:1025300007D17548B0F92000714991F90B10884214
:102540000BD06F4890F90A006F49C8836C4890F926
:102550000B000884084609F03DFB0020684908701C
:1025600027E06A484079012803D06848407902286A
:102570001FD16348807A654988706148C07AC87005
:10258000634800E019E00A680260097901710025DA
:1025900005E05F48405D3044C6B2681CC5B2042DFA
:1025A000F7DB5B48067101F0C9FC10B1002054490B
:1025B000087000205349086310E05248008E00F470
:1025C000005058B14F48006B80F400504D490863EB
:1025D00000204B498872C8724A490863484A92F9F8
:1025E0000B1092F90A00FFF7F3FA8CE1454890F8D6
:1025F000300000F00200A8B14248006B80F00200F9
:10260000404908633E48C089B0F5966F04DB4FF43B
:1026100096603B49C8813EE03948C089401C384932
:10262000C88138E0374890F8300000F00800A8B1C1
:102630003448006B80F00800324908633048C08994
:10264000B0F5167F04DC4FF416702D49C88122E0E6
:102650002B48C089401E2A49C8811CE02948008EA9
:1026600000F48070B8B12748006B80F48070254971
:1026700008630020224908702348408CC989884299
:1026800006D01F48C08920494884084609F0A2FAAC
:1026900000201C4908631A49C889FFF795FB32E1FD
:1026A000184890F8300000F00200A8B11548006BFF
:1026B00080F00200134908631148008A40F6FF7158
:1026C000884203DB08460E4908824AE00C48008A2B
:1026D000401C0B49088244E00A4890F8300000F0A2
:1026E000080008B30748006B80F00800054908633C
:1026F0000348008A64280DDC64200149088230E028
:10270000FC430020C84300201C1E0020EC030020D6
:10271000F80300207D48008A642822DD7B48008A77
:10272000401E7A4908821CE07948008E00F48070CF
:10273000B8B17748006B80F4807075490863002059
:10274000724908707348C08C098A884206D06F4865
:10275000008A7049C884084609F03CFA00206C4998
:1027600008636A49088AFFF75FFBCCE0684890F885
:10277000300000F0020088B16548006B80F0020074
:10278000634908636148408A401C604948820846A2
:10279000408A0C2842DB012048823FE05C48008EE2
:1027A00000F48070A0B35A48006B80F480705849E0
:1027B000086300205549087056480089498A8842B4
:1027C00029D05248408A012825DB5048408A401EC3
:1027D00000EB4000504931F810004E4908814B4849
:1027E000408A401E00EB40004B4901EB400040880E
:1027F000484948804548408A401E00EB4000464911
:1028000001EB400080884349C880084601E076E03B
:1028100004E009F0DFF900203D4908633B49488A9C
:10282000FFF732FB6FE03A48008E00F4807050B141
:102830003748006B80F480703549086300203349C5
:10284000087033490863FFF73BFB5CE0304890F8C1
:10285000300000F0020098B12D48006B80F00200BB
:102860002B4908632948808A012803DB0120274976
:1028700088823FE02548808A401C2449888239E0CC
:10288000234890F8300000F00800B0B12048006BF9
:1028900080F008001E4908631C48808A18B900208F
:1028A0001A49888226E01948808A002822DD1748C4
:1028B000808A401E154988821CE01548008E00F46D
:1028C0008070B8B11248006B80F4807010490863C2
:1028D00000200E4908700F48008D898A884206D072
:1028E0000A48808A0B490885084609F073F90020D8
:1028F000074908630549888AFFF7EEF803E00020DE
:102900000249087000BF00BFBDE8F081FC43002011
:10291000C84300201C1E0020F8D5000800E0401E1F
:102920000028FCD17047002000BFA1E000BF00BF1D
:1029300000BF00BF00BF00BF00BF00BF00BF00BF9F
:1029400000BF00BF00BF00BF00BF00BF00BF00BF8F
:1029500000BF00BF00BF00BF00BF00BF00BF00BF7F
:1029600000BF00BF00BF00BF00BF00BF00BF00BF6F
:1029700000BF00BF00BF00BF00BF00BF00BF00BF5F
:1029800000BF00BF00BF00BF00BF00BF00BF00BF4F
:1029900000BF00BF00BF00BF00BF00BF00BF00BF3F
:1029A00000BF00BF00BF00BF00BF00BF00BF00BF2F
:1029B00000BF00BF00BF00BF00BF00BF00BF00BF1F
:1029C00000BF00BF00BF00BF00BF00BF00BF00BF0F
:1029D00000BF00BF00BF00BF00BF00BF00BF00BFFF
:1029E00000BF00BF00BF00BF00BF00BF00BF00BFEF
:1029F00000BF00BF00BF00BF00BF00BF00BF00BFDF
:102A000000BF00BF00BF00BF00BF00BF00BF00BFCE
:102A100000BF00BF00BF00BF00BF00BF00BF00BFBE
:102A200000BF00BF00BF00BF00BF00BF00BF00BFAE
:102A300000BF00BF00BF00BF00BF00BF00BF00BF9E
:102A400000BF00BF00BF00BF00BF00BF00BF00BF8E
:102A500000BF00BF00BF00BF00BF00BF00BF00BF7E
:102A600000BF00BF00BF00BF00BF00BF411C88B255
:102A70000A28FFF65BAF704744E000BF00BF00BF0D
:102A800000BF00BF00BF00BF00BF00BF00BF00BF4E
:102A900000BF00BF00BF00BF00BF00BF00BF00BF3E
:102AA00000BF00BF00BF00BF00BF00BF00BF00BF2E
:102AB00000BF00BF00BF00BF00BF00BF00BF00BF1E
:102AC00000BF00BF00BF00BF00BF00BF00BF00BF0E
:102AD00000BF00BF00BF00BF00BF00BF00BF00BFFE
:102AE00000BF00BF00BF00BF00BF00BF00BF00BFEE
:102AF00000BF00BF00BF00BF00BF00BF00BF00BFDE
:102B0000411E88B20028B8D17047000008B54FF6C2
:102B10002070ADF8000002208DF8020010208DF822
:102B2000030069460F4801F04BFC0420ADF800009B
:102B300002208DF8020010208DF8030069460A4833
:102B400001F03EFC4FF4C050ADF8000002208DF8BB
:102B5000020010208DF803006946044801F030FCA3
:102B600008BD0000000C01400014014000080140B5
:102B70001CB5012001F0ECF80021084601F000FC32
:102B80000120009000208DF804000C208DF8050035
:102B900000208DF80600684601F0E0F81CBD00003A
:102BA00010B5044614BB2021484801F0A3FC0421C1
:102BB000474801F09FFC4FF40061464801F09AFC41
:102BC0004FF48051434801F093FC434800780728B4
:102BD00006D1424801784248007800F089F873E055
:102BE00000213F48007800F083F86DE0012C24D1EB
:102BF0002021364801F07EFC0421354801F07AFCA2
:102C0000E102344801F074FC2103324801F072FC07
:102C100031480078052803D02F480078072806D1CE
:102C20002E4801782F48007800F062F84CE000212F
:102C30002C48007800F05CF846E0022C20D12021DE
:102C4000224801F055FC0421214801F053FCA10267
:102C5000204801F04FFCE1021E4801F04BFC1E48E9
:102C60000078052805D100211F48007800F040F8C1
:102C70002AE01A4801781C48007800F039F823E06F
:102C8000032C21D12021114801F034FC04211048EB
:102C900001F02EFC4FF400610E4801F02BFC4FF4C4
:102CA00080510C4801F026FC0B480078072806D11B
:102CB0000A4801780D48007800F01AF804E0002175
:102CC0000A48007800F014F810BD0000000C014024
:102CD0000014014000080140FC4300204E03002086
:102CE000000400200104002002040020030400204E
:102CF00070B504460D462DB14FF40051FC4801F06B
:102D0000F7FB04E04FF40051F94801F0F3FB142CF9
:102D100077D2DFE804F00A2E52779BBFF1EFEEED99
:102D2000ECEBEAE9E8E7E6E5E4E34FF48071F0482C
:102D300001F0DEFB4FF40071ED4801F0D9FB4FF4D8
:102D40008061EB4801F0D6FB4FF40061E84801F0E8
:102D5000CFFB4FF48051E64801F0CAFB4FF48041AD
:102D6000E34801F0C5FB4FF40041E14801F0C0FB2E
:102D7000E0E24FF48071DE4801F0BCFB4FF40071DB
:102D8000DB4801F0B7FB4FF48061D94801F0B2FB9A
:102D90004FF40061D64801F0ABFB4FF48051D448AA
:102DA00001F0A6FB4FF48041D14801F0A3FB4FF4A2
:102DB0000041CF4801F09EFBBCE24FF48071CC484B
:102DC00001F098FB4FF40071C94801F091FB4FF4FA
:102DD0008061C74801F08CFB4FF40061C44801F0EA
:102DE00087FB4FF48051C24801F084FB4FF48041CF
:102DF000BF4801F07DFB4FF40041BD4801F078FB76
:102E000098E273E24FF48071B94801F073FB4FF41C
:102E10000071B74801F06CFB4FF48061B44801F0D9
:102E200067FB4FF40061B24801F062FB4FF4805140
:102E3000AF4801F05DFB4FF48041AD4801F058FB15
:102E40004FF40041AA4801F055FB73E24FF4807142
:102E5000A74801F04DFB4FF40071A54801F04AFB73
:102E60004FF48061A24801F043FB4FF40061A04899
:102E700001F03EFB4FF480519D4801F039FB4FF4C7
:102E800080419B4801F036FB4FF40041984801F027
:102E900031FB4FE24FF48071954801F029FB4FF46C
:102EA0000071934801F024FB4FF48061904801F0D9
:102EB0001FFB4FF400618E4801F01CFB4FF4805162
:102EC0008B4801F015FB4FF48041894801F010FB5D
:102ED0004FF40041864801F00DFB2BE2E2E1BDE139
:102EE00098E173E14EE129E104E1DDE0B8E093E02F
:102EF0006EE049E024E0FFE74FF480717C4801F088
:102F0000F7FA4FF400717A4801F0F2FA4FF4806159
:102F1000774801F0EDFA4FF40061754801F0EAFAE4
:102F20004FF48051724801F0E3FA4FF48041704849
:102F300001F0DEFA4FF400416D4801F0D9FAF9E1F1
:102F40004FF480716A4801F0D5FA4FF40071684877
:102F500001F0CEFA4FF48061654801F0CBFA4FF4EE
:102F60000061634801F0C4FA4FF48051604801F0F9
:102F7000BFFA4FF480415E4801F0BCFA4FF40041C3
:102F80005B4801F0B7FAD5E14FF48071584801F081
:102F9000AFFA4FF40071564801F0AAFA4FF480617D
:102FA000534801F0A5FA4FF40061514801F0A0FA2E
:102FB0004FF480514E4801F09BFA4FF480414C4849
:102FC00001F096FA4FF40041494801F091FAB1E15D
:102FD0004FF48071464801F08BFA4FF40071444879
:102FE00001F086FA4FF48061414801F081FA4FF414
:102FF00000613F4801F07CFA4FF480513C4801F0F9
:1030000077FA4FF480413A4801F072FA4FF40041E8
:10301000374801F06FFA8DE14FF48071344801F0C8
:1030200067FA4FF40071324801F062FA4FF48061A0
:103030002F4801F05DFA4FF400612D4801F058FA75
:103040004FF480512A4801F053FA4FF48041284848
:1030500001F050FA4FF40041254801F049FA69E1C6
:103060004FF48071224801F043FA4FF40071204878
:1030700001F040FA4FF480611D4801F039FA4FF435
:1030800000611B4801F036FA4FF48051184801F0F6
:103090002FFA4FF48041164801F02AFA4FF400410C
:1030A000134801F025FA45E14FF48071104801F012
:1030B0001FFA4FF400710E4801F01AFA4FF48061C4
:1030C0000B4801F017FA4FF40061094801F012FAB9
:1030D0004FF48051064801F00DFA4FF48041044846
:1030E00001F006FA4FF40041014801F001FA21E134
:1030F000000C01404FF480718F4801F0FBF94FF450
:1031000000718D4801F0F6F94FF480618A4801F0B2
:10311000EFF94FF40061884801F0EAF94FF480516B
:10312000854801F0E5F94FF48041834801F0E0F96A
:103130004FF40041804801F0DBF9FBE04FF480716F
:103140007D4801F0D5F94FF400717B4801F0D0F9CA
:103150004FF48061784801F0CBF94FF40061764874
:1031600001F0C8F94FF48051734801F0C3F94FF4EE
:103170008041714801F0BCF94FF400416E4801F004
:10318000B7F9D7E04FF480716B4801F0B1F94FF413
:103190000071694801F0ACF94FF48061664801F0B4
:1031A000A7F94FF40061644801F0A4F94FF480518D
:1031B000614801F09FF94FF480415F4801F09AF9AE
:1031C0004FF400415C4801F093F9B3E04FF4807193
:1031D000594801F08FF94FF40071574801F08AF90E
:1031E0004FF48061544801F083F94FF40061524874
:1031F00001F080F94FF480514F4801F07BF94FF412
:1032000080414D4801F076F94FF400414A4801F001
:1032100071F98FE04FF48071474801F06BF94FF47A
:103220000071454801F066F94FF48061424801F0B1
:103230005FF94FF40061404801F05CF94FF48051B0
:103240003D4801F057F94FF480413B4801F052F9F5
:103250004FF40041384801F04BF96BE04FF48071B6
:10326000354801F045F94FF40071334801F042F957
:103270004FF48061304801F03BF94FF400612E4873
:1032800001F038F94FF480512B4801F031F94FF437
:103290008041294801F02EF94FF40041264801F001
:1032A00029F947E04FF48071234801F023F94FF4E6
:1032B0000071214801F01CF94FF480611E4801F0B3
:1032C00019F94FF400611C4801F012F94FF48051D4
:1032D000194801F00DF94FF48041174801F008F941
:1032E0004FF40041144801F005F923E04FF48071D8
:1032F000114801F0FFF84FF400710F4801F0FAF89F
:103300004FF480610C4801F0F5F84FF400610A4871
:1033100001F0F0F84FF48051074801F0EBF84FF45A
:103320008041054801F0E6F84FF40041024801F001
:10333000E1F800BF00BF70BD000C01402DE9F0476F
:103340004FF00009FE48007802287CD1FD49098829
:1033500001EB410202EBC1010A2291FBF2F1FA4AB0
:103360001288914270DAF749098801EB8100C11790
:1033700000EB91718910F44A1288914264DBF348A2
:10338000007800287DD0F048008840F2DC51884267
:1033900046DDED48008840F6C411884240DAEC482A
:1033A0000088B0F5167F3BDBE9480088A0F5167071
:1033B000C6170546E749D1E900C12A46A2FB0C0A17
:1033C00006FB0CA305FB013C42F2107200210346F0
:1033D0006046A3FB027A00FB02A003FB0108DE4A61
:1033E0000B4638464146FCF7A9FF05462C46A0B2DD
:1033F00000EBD0714FEA61090020D8490880B9F18B
:10340000000F0BD009F18C00D5490968884205D816
:10341000B9F5E67F02DA80B2BDE8F0870020FBE76D
:10342000C948008840F2DC51884233DCC848008833
:10343000B0F5167F2CDBC6480088A0F51670C617BD
:103440000546C44801E063E2A5E0D0E900C02B4690
:10345000A3FB0C1A06FB0CA205FB002C42F2107316
:1034600000200A466146A2FB037A01FB03A102FB8E
:103470000011B94A03463846FCF760FF05462C4662
:1034800000E009E01FFA84F90020B449088048E20E
:103490000020C1E70020BFE7AB48008840F6B83104
:1034A000884243DDA848008841F2883188423DDAED
:1034B000A7480088B0F5966F38DBA5480088A0F5CE
:1034C0009660C6170546A349D1E900C12A46A2FB6A
:1034D0000C0A06FB0CA305FB013342F210724FF0FD
:1034E000000CA0FB027A03FB02A200FB0C219A4A0B
:1034F00063463846FCF722FF05462C46A0B200EB97
:10350000D0714FEA6109002094490880B9F1000F99
:103510000AD009F18C0092490968884204D8B9F5AB
:10352000E67F01DA80B277E7002075E786480088F9
:1035300040F6B83188422CDC85480088B0F5966F9B
:1035400025DB83480088A0F59660C61705468148AC
:10355000D0E9002C2846A0FB020A06FB02A205FBCC
:103560000C2342F210710022A0FB017A03FB01A19F
:1035700000FB0211784A00233846FCF7DFFE0546BF
:103580002C461FFA84F9002074490880C9E1002004
:1035900042E7002040E76B49098801EB8100C11731
:1035A00000EB91718910684A128891427EDA654970
:1035B000098801EB8101032291FBF2F1624A128832
:1035C000914273DD67480088C0F5F867002F01DB82
:1035D000384600E0784281B2634801F05DF9002886
:1035E00065D15A48007800287ED05748008840F2BC
:1035F000D66188423EDD5448008840F6C4118842B6
:1036000038DA53480088B0F5167F31DB504800881F
:10361000A0F51670C61705464E4903C92A46A2FBF7
:1036200000CA06FB00A005FB010142F21073002254
:103630006046A0FB037A01FB03A10CFB0211464A82
:1036400000233846FCF77AFE05462C463D480088A4
:1036500040F2DC51884205DDC4F34F0909F1B400A2
:1036600080B2D9E61FFA84F900203C49088058E16D
:103670000020D1E63448008840F2D661884231DC2F
:1036800033480088B0F5167F2ADB31480088A0F562
:103690001670C61705462F482946D0E9002CA1FB15
:1036A000023A06FB02A005FB0C0001E0B1E0AEE02F
:1036B00042F210714FF0000CA3FB017A00FB01A055
:1036C00003FB0C01244A63463846FCF737FE0546E7
:1036D0002C461FFA84F900202049088021E103E0EC
:1036E000002099E6002097E61748008840F6AC5184
:1036F000884256DD1448008841F28831884250DA09
:1037000013480088B0F5966F49DB11480088A0F592
:103710009660C61705460F48D0E9001C2846A0FB56
:10372000013A06FB01A105FB0C1242F210700021C8
:10373000A3FB007A02FB00A003FB0108064A15E088
:10374000BC030020B8030020BA0300208603002039
:10375000C0030020980300200080F40346000020EE
:103760008C030020CE0300201C2F00200B4638467F
:103770004146FCF7E3FD05462C467048008840F6BC
:10378000B831884205DDC4F34F0909F1B40080B2B5
:1037900042E61FFA84F9002069490880C1E0002050
:1037A0003AE66848008840F6AC5188422DDC66480D
:1037B0000088B0F5966F26DB63480088A0F5966018
:1037C000C617054661482946D0E9002CA1FB023AFC
:1037D00006FB02A205FB0C2042F210714FF0000C18
:1037E000A3FB017A00FB01A003FB0C01584A6346CE
:1037F0003846FCF7A3FD05462C461FFA84F9002045
:103800004F4908808DE0002006E6002004E60020F5
:1038100002E64A48008800EB8000032190FBF1F0AB
:1038200048490988884271DC4A480088C0F5F86731
:10383000002F01DB384600E0784281B2464801F0B3
:103840002BF870BB4548007860B33F480088B0F55E
:10385000167F28DB3C480088A0F51670C617054681
:103860003A482946D0E9002CA1FB020A06FB02A235
:1038700005FB0C2142F210734FF0000CA0FB037A01
:1038800001FB03A100FB0C11314A63463846FCF7EB
:1038900055FD05462C461FFA84F90020284908806A
:1038A0003FE031E001E00020B6E527480088B0F5B0
:1038B000966F26DB24480088A0F59660C61705465B
:1038C00022482946D0E9002CA1FB020A06FB02A2ED
:1038D00005FB0C2142F210734FF0000CA0FB037AA1
:1038E00001FB03A100FB0C11194A63463846FCF7A3
:1038F00025FD05462C461FFA84F900201049088052
:103900000FE0002088E501E0002085E5002083E548
:103910001348007818B112480078012801D14FF0FF
:103920000009B9F1000F07D009F58C700D4909683D
:10393000884201D880B26FE500206DE5B803002011
:1039400046000020BA030020C00300209803002096
:103950000080F403CE0300201C2F002086030020EB
:10396000BC0300208C0300200346062106221248D7
:10397000018812480288ABB1012B1BD13AB94EF62F
:10398000EE60814201D1002070470120FCE739B987
:103990004EF6EE60824201D10120F5E70020F3E708
:1039A000AB20F1E709B90020EEE70AB90120EBE707
:1039B000AB20E9E70020E7E7000001080008010864
:1039C00010B504240B4800F029FB0446042C01D058
:1039D000204610BD0021074800F078FB0446042C67
:1039E00001D02046F5E7044800F018FB04462046C5
:1039F000EFE70000000001080008010810B508F01A
:103A000021FF044600F0E4FE204610BD2DE9F047FA
:103A100006460F46002545F255584FF00109114C56
:103A2000A2460020FFF7A0FF0546AB2D01D1BDE85F
:103A3000F0870C4800EBC52A0B480068841E0AE09A
:103A4000B4F80080B04505D134F8020C38804FF04E
:103A5000000904E0241F0AF102008442F0D800BFEC
:103A60004846E4E700000108780300202DE9F04112
:103A700004460F4604250026DFF86C800120FFF77E
:103A800073FF0646AB2E01D1BDE8F081701C1749CB
:103A900001EBC02821E0164800680068401CB8B956
:103AA00039461348006800F011FB0546042D01D08B
:103AB0002846E9E721460E480068801C00F006FB16
:103AC00005460B480068001D094908602846DBE7E9
:103AD00007480068001D0649086005480068404521
:103AE000D9D38020D0E70000FF070108FEFF0008BF
:103AF0007803002010B5012000F02AF97F480078F3
:103B000001283ED101217E4800F0E9FC012832D194
:103B10008007808C7B4908807B48007808BB08467A
:103B200000887A49098888421BDB0121880707F051
:103B3000FDFAB0B97348008875490880714800885B
:103B400072490988401A7349088007F093FB72484C
:103B5000FDF742FE7149088000217148FDF725F804
:103B6000CAE00121880707F070FA00206349087055
:103B7000FEF7FEFFC0E0002060490870FEF7F8FF86
:103B8000BAE05E4800780028EAD15F480078022851
:103B900008D100205949087062480078401C6149EA
:103BA0000870A9E05848007800284AD14FF08040BA
:103BB000808C564908805C48808B012808D15B497D
:103BC000088800EBD0714910594AA2F886120DE01E
:103BD0005548808B28B9554800885549A1F8860278
:103BE00004E0524800885249A1F886025048B0F8D3
:103BF000860246490988884219DD01203F4908703C
:103C000006F04EFE00204B49088000214248FDF797
:103C100031FD4FF4F8614048FDF72AFE01213E488E
:103C2000FDF728FD01213E48FCF7BFFF64E00020BE
:103C30003249087001203E4981F88502FEF798FF5D
:103C40005AE031480078012856D1364800780128DA
:103C500007D18007808C3849098808443749088093
:103C60000BE030480078032807D14FF08040808C6B
:103C7000314909880844324908804FF08040808CDF
:103C80002D49088000204FF0804188842D4908800C
:103C900024480078D8B904E04FF08040808C29494E
:103CA000088028480088284909888842F4DD0024D3
:103CB00009E00121124800F012FC10B10220124963
:103CC0000870601CC4B20A2CF3DB002400BF012181
:103CD0001E4807F0BDF9184800881B49098888422A
:103CE00004DD10480078401C0E490870002003498C
:103CF00008704FF08041888410BD0000BC03002094
:103D000000080140BA030020CC030020B8030020C3
:103D1000C0030020B603002008000240CE030020AC
:103D200000240140380000201C1E0020A8030020B1
:103D3000440C00203C000020C4030020DC030020D1
:103D4000DE030020C8030020C6030020002C014031
:103D50000149086070470000140401400021234914
:103D60008279002A3AD00A46126803689A430B46C1
:103D70001A600A1D126803689A430B1D1A600279C3
:103D800011440A6803681A430A60184A0832126824
:103D900003689A43154B08331A601A1D12680368AA
:103DA0009A43124B0C331A604279102A0ED11A1F13
:103DB000126803681A430D4B08331A601A1D126803
:103DC00003681A43094B0C331A600DE00749427926
:103DD00011440A6803681A430A6005E00279114435
:103DE0000A6803689A430A607047000000040140B3
:103DF0001CB50120FFF7ACFF0021084600F0C0FA17
:103E00000120009000208DF804000C208DF80500A2
:103E100001208DF806006846FFF7A0FF1CBD0000DA
:103E20002DE9F04100250027032400204049487176
:103E300068E000250AE02946A02006F03DFF04EBDB
:103E400084013C4A11444855681CC5B2052DF2DB7B
:103E500004EB84003749085C322850D1002508E083
:103E600004EB840033490844405D3844C7B2681C01
:103E7000C5B2042DF4DB04EB84002E49084400791C
:103E8000B84238D104EB84000844807820B904EBB0
:103E900084000844C07850B301202549487104EBE0
:103EA00084002449014422480A68026009790171AA
:103EB0002148B0F91E001E49897849B2884207D1CD
:103EC0001D48B0F920001A49C97849B288420BD080
:103ED0001748807840B21849C8831548C07840B266
:103EE0000884084607F076FE0026BDE8F081032628
:103EF000601EC4B206E00226601EC4B202E00126C3
:103F0000601EC4B2002C94DC012E03D104200849A9
:103F100048710AE0022E03D105200549487104E0EA
:103F2000032E02D102200249487100BFDDE70000E4
:103F3000EC030020534000201C1E00202DE9FC4112
:103F400000240020009001900326804659E00024C0
:103F50000FE02E48025D2146A02006F0C7FE00209B
:103F60002B49887000BF2A4880780228FBDB601C40
:103F7000C4B2052CEDDB002407E02146A02006F0AA
:103F80009BFE0DF80400601CC4B2052CF5DB002577
:103F90000AE01DF805001D49495D884201D001274E
:103FA00004E00027681CC5B2052DF2DB00BF17B185
:103FB000701EC6B225E09DF80000322802D0002015
:103FC000BDE8FC811348B0F91E001349897849B255
:103FD000884207D10F48B0F920000F49C97849B28B
:103FE00088420BD00C48807840B20A49C8830A48FE
:103FF000C07840B20884084607F0ECFD4FF0010895
:1040000001E0002EA3DC00BF4046D9E7F803002002
:10401000482600201C1E0020EC03002030B504467A
:1040200004254FF4302000F089F80546042D17D1FF
:104030000C48006940F002000A49086108464461E2
:10404000006940F0400008614FF4302000F076F83D
:1040500005460448006941F6FD71084001490861C0
:10406000284630BD0020024004200B49C96801F0F9
:10407000010109B101200EE00749C96801F00401FE
:1040800009B1022007E00449C96801F0100109B133
:10409000032000E00420704700200240034800692C
:1040A00040F0800001490861704700000020024094
:1040B0000549096821F01001034A11601146096899
:1040C00001431160704700000020024070B50446B3
:1040D0000D460426F00200F031F80646042E11D1F8
:1040E0000948006940F00100074908612580F00295
:1040F00000F024F806460448006941F6FE710840C5
:1041000001490861304670BD002002400146002090
:10411000034A106800F03800084310607047000040
:104120000020024002480349486003484860704745
:104130002301674500200240AB89EFCD00B5024660
:104140000423FFF791FF034603E0FFF78DFF0346CB
:10415000521E012B01D1002AF7D102B905231846BE
:1041600000BD00002DE9F04106460D460024002761
:10417000C8214348FCF706FC00BF0CE035F8020BF1
:104180003F4921F81400084630F8140008B1601CBB
:10419000C4B2781CC7B2B742F0DB032C6DDD322C01
:1041A00015DB072094FBF0F000F0FF0841462046A5
:1041B00005F03AFD002860D0072094FBF0F000F0F5
:1041C000FF084146204605F02FFDBDE8F081282C70
:1041D0000CDB322C0ADA0621204605F025FD0028EA
:1041E0004BD00621204605F01FFDEEE71E2C0BDB11
:1041F000282C09DA0521204605F016FDE0B305213B
:10420000204605F011FDE0E7142C0BDB1E2C09DA2B
:104210000421204605F008FD70B30421204605F076
:1042200003FDD2E70A2C0BDB142C09DA032120460C
:1042300005F0FAFC00B30321204605F0F5FCC4E7C5
:10424000052C0BDB0A2C09DA0221204605F0ECFCD8
:1042500090B10221204605F0E7FCB6E7032C0CDD07
:10426000052C0ADA0121204605F0DEFC20B10121EF
:10427000204605F0D9FCA8E7FFE70020A5E70000ED
:1042800020070020704770472DE9F04F03460C4689
:104290004FF0000C002188460025002600228946A8
:1042A0008A460027354890F8700202280BD133481F
:1042B00090F8760204280BD0304890F86D0201285F
:1042C00006D1BDE8F08F0020DFF8B0B08BF86D02AA
:1042D000642C45DB062094FBF0F085B204EB44002F
:1042E0004FF0050B90FBFBF086B2294608E033F84F
:1042F0001100404502DD33F811800A46481C81B2A6
:10430000B142F4DD4FF00A0AD14605F10A008242BB
:1043100002DC501B1FFA80FA02F10A00B04202DBF5
:10432000B01A1FFA80F9A2EB0A0081B208E033F854
:104330001100B0F51B7F01DB781CC7B2481C81B2AD
:1043400002EB09008842F2DA062F09DB4FF0010C7C
:104350000120DFF828B08BF86D0200208BF8940262
:10436000064890F87602042805D1044890F86D02BA
:10437000012800D184466046A3E70000440C0020D9
:1043800030B500228B071C0F0F2303FA04F20B4BEE
:104390008C1053F824309343084C8D1044F825308A
:1043A00023468C1053F824308C07240F00FA04F4B1
:1043B0002343024C8D1044F8253030BD08000140E5
:1043C0002DE9F041024600250026002000230024AC
:1043D000002791F803C00CF00F0591F803C00CF012
:1043E000100CBCF1000F03D091F802C04CEA050597
:1043F00091F800C0BCF1000F31D0146800202BE010
:104400004FF0010C0CFA00F3B1F800C00CEA0306FF
:104410009E4220D183004FF00F0C0CFA03F7BC43EF
:1044200005FA03FC4CEA040491F803C0BCF1280F20
:1044300006D14FF0010C0CFA00FCC2F814C00AE0DF
:1044400091F803C0BCF1480F05D14FF0010C0CFAF4
:1044500000FCC2F810C0401C0828D1D31460B1F889
:1044600000C0BCF1FF0F34DD546800202EE000F1E5
:10447000080C4FF0010808FA0CF3B1F800C00CEA80
:1044800003069E4221D183004FF00F0C0CFA03F774
:10449000BC4305FA03FC4CEA040491F803C0BCF1E8
:1044A000280F05D100F1080C08FA0CF8C2F81480A6
:1044B00091F803C0BCF1480F07D100F1080C4FF090
:1044C000010808FA0CF8C2F81080401C0828CED366
:1044D0005460BDE8F0810146886880B270470246AA
:1044E000002093680B400BB1012000E000207047D2
:1044F000416170470161704770B5012240F225515A
:10450000104807F060F80525002417E004EBC410FC
:104510000D4A81180D48FCF73DF968B1FF210B48A1
:10452000FCF730FA00200A49087004EBC410064971
:10453000084490F8800070BD601CC4B2AC42E5DB5A
:104540000020F8E7003801405A000020CE09002082
:104550005400002070B50024002500260848FFF70D
:10456000BAFF06466FEA9620C4B204F0070424B1ED
:10457000601EC5B20120A840C4B2204670BD000034
:104580000010014030B504460025AA202070092003
:104590006070F020A0700020E0701220207159207F
:1045A00060711120A071E0712920207200206072DA
:1045B0000120A0720B21204607F0A4FA0546E572FF
:1045C00030BD000070B50446002600250F48058860
:1045D00024202070F12060700520A0702846E91783
:1045E00005EB1161090AE170E91705EB1161091288
:1045F000A5EB01212171002060710621204607F002
:1046000081FA0646A671FF20E07170BD52000020BD
:1046100070B504460D46412007F070F8542007F0AD
:104620006DF8002607E0FFF72DFE14F8010B07F0E8
:1046300065F8701CC6B2AE42F5DB0D2007F05EF8DF
:104640000A2007F05BF80520FEF768F970BD00004E
:1046500000B50823002280200F49086014E05006AE
:10466000020E40200C490860FEF75DF940200A491F
:10467000091D086008480838006800F0800008B18B
:1046800042F00102FEF74FF9181EA3F10101CBB26F
:10469000E5D1104600BD0000100C014000B54020DF
:1046A00008490860FEF73FF906480838006800F03E
:1046B000800000B100BFFEF736F940200149091D16
:1046C000086000BD100C014000B50246082319E047
:1046D000FEF729F902F0800018B180200D4908602A
:1046E00003E080200B49091D08605006020E40209F
:1046F00008490860FEF717F940200649091D0860BF
:10470000FEF711F9181EA3F10101CBB2E0D1FFF7BA
:10471000C5FF00BD100C014000B5802008490860AD
:1047200040200860FEF7FFF880200549091D086059
:10473000FEF7F9F840200249091D086000BD00009D
:10474000100C014000B58020064908604020091F78
:104750000860FEF7E8F880200249091F0860FEF7AC
:10476000E2F800BD140C014010B5044645F2555066
:1047700000F028F8062000F019F8204600F01CF898
:1047800000F00CF800F002F810BD00004CF6CC4030
:104790000149086070470000003000404AF6AA2036
:1047A000014908607047000000300040014948603E
:1047B00070470000003000400149886070470000E9
:1047C00000300040014908607047000000300040A0
:1047D00070B5042600240120FFF7C6F80446AB2C70
:1047E00006D1124800EBC42011490860AB2070BD0F
:1047F0000E4800EBC4200E490860601C0B49891E5E
:1048000001EBC0250CE00A4800680068401C10B9A4
:1048100004263046EBE706480068001D044908609E
:1048200003480068A842EED38020E0E700000108BA
:104830007803002010B503460122012100BF1CE0CF
:104840001348805C134C60541148805C7D2805D16E
:104850006054481C81B2012060540AE00C48805C1E
:104860007E2806D17D200B4C6054481C81B202206A
:104870006054481C81B2501C82B2581C8242DFDB5B
:104880007E20044C20706054481C80B210BD000093
:104890000A180020DE160020F0B503460020002292
:1048A000002500260024124F398064291BDB0627CF
:1048B00091FBF7F7BDB201EB81074FF0060C97FBB8
:1048C000FCF7BEB22A4608E033F81270B7F5006F65
:1048D00001DD671CBCB2571CBAB2B242F4DD192C20
:1048E00004DB012002E0642900DA0020F0BD0000B2
:1048F000D403002010B5002100BF5DE0421D525CD2
:1049000022B1012A0FD0022A4CD123E002780123E0
:104910008B401A4032B10123421D535400230B3205
:1049200042F8213045E0C27801238B401A4042B161
:1049300000F1100252F82120521C00F1100343F83C
:104940002120427801238B401A4012B10223421DDC
:1049500053542EE000F1100252F82120192A0CD3F2
:1049600000F1100252F82120B2F5FA6F05D20123AE
:104970008B40026B1A4302630DE000F1100252F803
:104980002120B2F5FA6F06D301F1080301249C40FF
:10499000026B224302630023421D53540B3242F840
:1049A000213006E00023421D53540B3242F82130DF
:1049B00000BF00BF4A1CD1B208299FDB10BD70B5F3
:1049C0000446002506F0DAF800BF00BF00BF00BFB4
:1049D00000BFFFF7BFFD054665B12079401C20717F
:1049E0002079082803D100202071A57005E0E07827
:1049F000A07002E00020A0702071A578E078A17876
:104A0000484008402070A07821784840E17848402C
:104A10006070E57070BD0000002000210B4A11702D
:104A200051709170D170117100BF08E000220749E8
:104A3000491D0A540B3141F82020411CC8B20828F6
:104A4000F4DB0021014A116370470000C8430020D5
:104A500010B5194890F88402012804D0164890F83F
:104A60006D02012815D115490988642291FBF2F0E5
:104A700000EBD0714910A0EB410121B100210846A3
:104A800000F022F817E00E4A5178107800F01CF878
:104A900011E00C49088800EBD0714910A0EB4101EE
:104AA00021B10021084600F00FF804E0044A5178D3
:104AB000107800F009F810BD440C0020BE0300205F
:104AC0005E030020AE03002070B505460C4645B9D4
:104AD00010211E48FFF70CFD20211C48FFF708FDA0
:104AE00014E0012D08D110211848FFF701FD202105
:104AF0001648FFF7FFFC09E0022D07D110211348EB
:104B0000FFF7F8FC20211148FFF7F2FC44B901211E
:104B10000F48FFF7EDFC02210D48FFF7E9FC14E018
:104B2000012C08D101210A48FFF7E4FC02210848C2
:104B3000FFF7DEFC09E0022C07D101210448FFF752
:104B4000D7FC02210248FFF7D5FC70BD00100140E0
:104B5000000C014030B500200021002200239520E8
:104B60000BE0214C34F810402CB14C1CA1B21E4C6F
:104B700034F810402344441CA0B2B0F5967FF0DB1B
:104B800011B1B3FBF1F4A2B2952013E0164D35F844
:104B90001050541B002C01DB254600E06542B5F5A2
:104BA000967F05DD104D35F810500DB10F2104E052
:104BB000441CA0B2B0F5967FE8DB00BF252909DDD3
:104BC000B2F5967F06DB094C24781CB9084CA4F892
:104BD0008E2208E00A2906DCB2F5967F03DA00246B
:104BE000034DA5F88E4230BD324100201500002053
:104BF000440C00202DE9F04104460D4616461F46A0
:104C00005020DFF8ACC08CF8000044208CF8010084
:104C100041208CF802003A208CF8030078208CF8B0
:104C2000040005F00F0C20466CF31F10DFF880C065
:104C30008CF80500752F01DD752000E0384602462E
:104C40001B488271002108E016F801C0C81DDFF87A
:104C5000608008F800C0481CC1B29142F4DB1146E4
:104C600008E04FF0FF0CC81DDFF8448008F800C0D2
:104C7000481CC1B27529F4DB0D480379052104E015
:104C80000B48405C4340481CC1B27C29F8DB084813
:104C900080F87C304520DFF818C08CF87D004E206D
:104CA0008CF87E0044208CF87F008020BDE8F081E5
:104CB000C81C00202DE9F04105460C4600270026BF
:104CC00004EB052086B24FF480712348FFF712FCF5
:104CD00080212148FFF70CFC40211F48FFF708FC0A
:104CE0000320FDF7C9FE4FF480711B48FFF700FC5D
:104CF0000320FDF7C1FE00BF1FE080211648FFF72B
:104D0000F7FB06F4004020B940211348FFF7F0FB01
:104D100003E040211048FFF7EDFB4FF6FF7000EA7B
:104D200046060120FDF7A8FE80210B48FFF7E2FBB5
:104D30000320FDF7A1FE781CC7B2102FDDDB802118
:104D40000548FFF7D5FB4FF480710348FFF7D2FB0E
:104D50002046BDE8F0810000001001402DE9F84F29
:104D600005464FF0000A00270026B346B046B1467C
:104D70000020009065213F48FBF704FE00241DE061
:104D8000285710F1640F02DA9C20285504E02857B8
:104D9000642801DD64202855285764300A2190FBDF
:104DA000F1F03449085C401CC1B2285764300A2233
:104DB00090FBF2F02F4A1154601C84B23C2CDFDBD4
:104DC0002C480778012408E02A48005DB84202DD3B
:104DD0002848075DA346601C84B2152CF4DB5E46B0
:104DE0002EB906F10A001FFA80F900960DE0142E84
:104DF00005D1B146A6F10A0080B2009005E0701D11
:104E00001FFA80F9701F80B200900027009C05E017
:104E10001848005D384487B2601C84B24C45F7DD09
:104E2000002416E0285764300A2190FBF1F1009825
:104E300081420CDB285764300A2190FBF1F0484591
:104E400005DC2857824408F101001FFA80F8601C35
:104E500084B23C2CE6DB0F2F09DBB8F1000F04D045
:104E60009AFBF8F040B2BDE8F88F7D20FBE77D208B
:104E7000F9E70000263F002000B5802006490860C1
:104E800040200860FDF74FFD40200349091D0860E0
:104E9000FDF749FD00BD0000100C0140F0B50021F8
:104EA0000022002300250F24C678002E34D0214E86
:104EB000366806F4E066C6F5E066310AC1F104051D
:104EC000CC40467806FA05F1867826403143090140
:104ED0000678B607F60EB140174E0778BF1056F8A1
:104EE00027200678B607F70EFF2606FA07F39A433F
:104EF00019400A43104E0778BF1046F8272006785D
:104F000006F01F070126BE4007787F11BF0007F19A
:104F1000E027C7F800610BE0067806F01F070126BE
:104F2000BE40064F90F800C04FEA6C1C47F82C605A
:104F3000F0BD00000CED00E000E400E080E100E0E6
:104F400002490143024A1160704700000000FA055F
:104F50000CED00E008B54FF4A060FFF7F1FF06206C
:104F60008DF8000000208DF801008DF8020001206E
:104F70008DF803006846FFF791FF19208DF80000B7
:104F800002208DF801008DF8020001208DF8030049
:104F90006846FFF783FF25208DF8000001208DF87B
:104FA00001008DF802008DF803006846FFF776FFD8
:104FB00026208DF8000002208DF8010001208DF8D8
:104FC00002008DF803006846FFF768FF08BD000087
:104FD000F8B500200090002605F0E8FD002005F05F
:104FE000EBFD002005F0EEFDFE480088401CFD4969
:104FF00008800846008803280CD1FB48008848B187
:10500000F94800884CF25031884203D0F6480088B5
:10501000F6490880F3480088052800DCF8BDF1480F
:105020000088052190FBF1F201FB120000EB8000EB
:10503000EF4901EB00175022EE493846FBF72BFCF5
:10504000E84800880A2803D0E64800880F281CD1C9
:10505000E548008850B1E44800884CF2503188425D
:1050600004D0E1480088E149088006E0E24807F002
:10507000E5FEE1480088DD490880312005F090FD1B
:105080000020DE4981F88802C8E7D848008818B9AE
:10509000D9480088D5490880D2480088142800D013
:1050A000BCE70F20CF490880D548007801280DD1F2
:1050B000322005F075FDD3480088401ED149088094
:1050C0000846008810B90020CD490870CE48007805
:1050D00060B9CE480088401CCC490880084600884A
:1050E0001E2803DB00200880FFF734FDC24807F0CC
:1050F000A5FE70B9BD48008807F036FEC448008898
:10510000C4490988401AC2490880332005F048FD87
:1051100084E7B948008807F0E3FFBF4908700846F4
:105120000078012803D1342005F03AFD76E7B6482F
:10513000007880B9B14890F87602012804D0AF48D1
:1051400090F87602022806D10020AC4981F8760258
:105150000220B1490870A849AF48007807F076FCF2
:10516000A64890F87602042803D00020A34981F8CD
:105170009402A24890F88902022803D000209F4997
:10518000A1F896026946A54807F028FD05469B4808
:10519000B0F89202002806DD9848B0F89202401E4E
:1051A0009649A1F892029E480078012803D1562022
:1051B00005F0F6FC32E79148B0F8920220B1012DDB
:1051C00002D100250220009096480078012804D1E1
:1051D000012D02D1002502200090002D73D19DF8F1
:1051E0000000022818D18D48008807F0BDFD7F49D6
:1051F000098808447D490880864801887E480088DF
:1052000007F05EFD8349088078480088804908805F
:10521000572005F0C5FC80E09DF8000001281BD157
:105220007E48008807F0A0FD00EB80006F490988E8
:1052300008446E490880774801886F48008807F065
:105240003FFD7348008873490988401A70490880F7
:10525000352005F0A5FC60E069480078012840D1C0
:105260006848008800283CDD6C4800885F49098850
:10527000884236DD694800885C490988401A32282E
:1052800008DD5A480088323058490880362005F039
:1052900087FC23E05949B1F88E0201F061FF5748BD
:1052A000B0F8900200B1B9E6504909885B4A12880B
:1052B000881A5D4989894900032291FBF2F200288E
:1052C00002DB014601E067E041428A4203DA5348CB
:1052D000008846490880372005F062FC07F0F0FEA0
:1052E0001BE04E48008807F03FFD4049098808440C
:1052F0003E490880474801883F48008807F0E0FCA5
:105300004449088039480088414908804548007868
:10531000012802D0302005F043FC002043490880DA
:1053200039490870354981F8700281F87602A1F890
:105330007802A1F87A02A1F87C0281F88802A1F82B
:105340007E0281F88A0281F88902284800882A4969
:105350000988884215DB34488089032190FBF1F1EC
:1053600022480088244A1288801A814209DD234895
:10537000B0F892021E2804DC00202049A1F8920215
:1053800009E01A4800881C490988884203DA00208D
:105390001A49A1F8920241E600201C4908801A48E7
:1053A0000078A84218D000202049088016480570CF
:1053B0000020124981F8700281F87602A1F8780283
:1053C000A1F87A02A1F87C0281F88802A1F87E0295
:1053D00081F88A0281F889020B480078074981F830
:1053E000700225E004000020FE03002000000020E1
:1053F000040400204C26002006000020440C00205D
:105400000200002032000020150000201A000020B9
:105410000C0000200A0000201400002008000020DA
:105420001D0000201C0000201C1E00203000002059
:10543000FB48007801280DD1FA48047CFA4800782E
:105440004C2803DBF8480078552810DD392005F09A
:10545000A7FB0CE0F348847BF3480078442803DB87
:10546000F14800784B2802DD412005F099FBEF4818
:105470000088401CED49088008460088401EEC4921
:105480000988EC4A128802FB0010E8490988B0FB41
:10549000F1F0E849088008460088E5490880E048BE
:1054A000007801286CD1E44890F8890248B1E248BC
:1054B00090F88902022804D0DF4890F88902032876
:1054C0001CD102F01DFB05F025FC0646042E07D179
:1054D000D449088A00EBD0714910D44A118040E2C7
:1054E000052EFCD1CF49098A01EB4100C11700EB21
:1054F0009171C1F38F01CD4A118032E2CE4890F80C
:1055000089020128EBD1CA480188CC480088643060
:10551000814200DD82E5C849B1F88E0201F020FE2B
:10552000C548B0F8900200B178E5C5490988C04A7D
:105530001288881ABB4989894900032291FBF2F23B
:10554000002801DB014600E041428A4203DAB84804
:105550000088BB490880532005F022FBB84800882A
:10556000B849088007F0A6FD0020AD490870AF4992
:10557000088007F0A5FD0020AF4981F889024DE5BC
:10558000A74800780228AAD1AB4890F876020328F1
:1055900073D1A948B0F87802401CA749A1F8780255
:1055A0000846B0F87802032869DB0846B0F87802AC
:1055B000282864DA084690F8740218B902F02AFA2A
:1055C000012804D09C4890F88802012887D1984887
:1055D0000088FA3099490988884209DA9648B0F873
:1055E0007802482804DA0120934981F8880215E5F9
:1055F0009149B1F88E0201F0B3FD8F48B0F89002E6
:1056000000B10BE58E490988894A1288881A8549B4
:1056100089894900032291FBF2F2002801DB01464F
:1056200000E041428A4203DA8148008884490880C8
:105630000020814981F88802A1F87C02A1F8780253
:10564000A1F87A0281F8760281F8700201207E4981
:1056500008703C207D490880432005F0A1FA784875
:1056600000887849088007F025FD00206C49087003
:105670006E49088007F024FDD0E44AE0FFE76E4859
:10568000B0F878023C287DDB6B49B1F88E0201F05E
:1056900067FD6948B0F8900200B1BFE46849098825
:1056A000634A1288881A5F4989894900032291FB5D
:1056B000F2F2002801DB014600E041428A4203DAAF
:1056C0005B4800885E49088000205B4981F88802B9
:1056D000A1F87C02A1F87802A1F87A0281F876029A
:1056E00081F870020120584908703C205749088011
:1056F000432005F055FA524800885249088007F0C7
:10570000D9FC0020464908704849088007F0D8FCB9
:1057100084E4494890F8760204287DD14648B0F8E0
:105720007A02401C4449A1F87A020846B0F87A028D
:10573000B0F5B47F03DD4FF4B470A1F87A023E48AF
:10574000B0F87A0203289EDB3B48B0F87A025A2868
:1057500018DA394890F8740218B902F05BF9012898
:1057600004D0354890F8880201280BD130480088D1
:10577000FA303249098888420BDA2F48B0F87A02A9
:10578000482800E0E4E004DA01202B4981F888028F
:1057900044E42949B1F88E0201F0E2FC2648B0F851
:1057A000900200B13AE426490988214A1288881AF1
:1057B0001C4989894900032291FBF2F2002801DB90
:1057C000014600E041428A4203DA194800881C4938
:1057D00008800020184981F88802A1F87C02A1F80D
:1057E0007802A1F87A0281F8760281F8700201202D
:1057F000154908703C2015490880432005F0D0F970
:105800000F4800880F49088007F054FC0020044925
:1058100008700649088000E01AE007F051FC33E404
:10582000150000201C1E0020160000203000002063
:105830000800002012000020440C00200600002078
:10584000000000200C000020020000203200002098
:10585000F94890F87602052866D1F748B0F87C023E
:10586000401CF549A1F87C020846B0F87C02B0F56E
:10587000B47F03DD4FF4B470A1F87C02EE48B0F8B9
:105880007C0218286DDBED480088FA30EC49098865
:10589000884204DAB320E849A1F87C0238E4E649FA
:1058A000B1F88E0201F05CFCE348B0F8900200B160
:1058B0002EE4E4490988E14A1288881AE249898974
:1058C0004900032291FBF2F2002801DB014600E0CF
:1058D00041428A4203DAD9480088DA490880002028
:1058E000D54981F88802A1F87C02A1F87802A1F8D4
:1058F0007A0281F8760281F870020120D34908709B
:105900003C20D3490880432005F04AF9CD4800885F
:10591000D049088007F0CEFB0020CF490870CF495E
:10592000088007F0CDFB45E4C34890F876020128D3
:1059300004D0C14890F8760202280AD10020BE495E
:10594000A1F87802A1F87A02A1F87C02C348048089
:1059500007E00020B849A1F87802A1F87A02A1F87E
:105960007C02BE480088A04275DBBB480078022854
:1059700072D1B14890F8750202286ED1B8480088FB
:10598000C0F5F867002F01DB384600E0784281B2AD
:10599000B448FEF779FC78B9A74890F8740201285A
:1059A0000AD1442005F0FCF80120A34981F87602D1
:1059B0000020AA490880B6E0A9480088C0F5F86729
:1059C000002F01DB384600E0784281B2A548FEF79F
:1059D0005BFC01280FD1984890F8740201280AD185
:1059E000452005F0DDF80220934981F87602002079
:1059F0009A49088097E09A480088C0F5F867002F18
:105A000001DB384600E0784281B29648FEF73CFC64
:105A1000012823D1884890F87402F8B9864890F894
:105A20007602042804D0844890F87602052807D12D
:105A3000482005F0B5F805207F4981F8760206E098
:105A4000462005F0ADF803207B4981F8760200205E
:105A50008249088067E0D7E178E165E08048008806
:105A6000C0F5F867002F01DB384600E0784281B2CC
:105A70007C48FEF709FCE8BB6F4890F87402C8BB8D
:105A80006E480088FA306E490988884203DA00209F
:105A90007249088007E46849B1F88E0201F060FBA2
:105AA0006548B0F8900210B16C48048073E4654911
:105AB0000988624A1288881A634989894900032241
:105AC00091FBF2F2002801DB014600E041428A42EC
:105AD00003DA5A4800885B4908800020564981F85B
